{"abi":[{"type":"constructor","inputs":[{"name":"_token","type":"address","internalType":"address"},{"name":"_cToken","type":"address","internalType":"address"}],"stateMutability":"nonpayable"},{"type":"function","name":"cToken","inputs":[],"outputs":[{"name":"","type":"address","internalType":"contract CErc20"}],"stateMutability":"view"},{"type":"function","name":"supply","inputs":[{"name":"_amount","type":"uint256","internalType":"uint256"}],"outputs":[{"name":"","type":"uint256","internalType":"uint256"}],"stateMutability":"nonpayable"},{"type":"function","name":"token","inputs":[],"outputs":[{"name":"","type":"address","internalType":"contract IERC20"}],"stateMutability":"view"},{"type":"error","name":"MintFailed","inputs":[]}],"bytecode":{"object":"0x608060405234801561001057600080fd5b5060405161038638038061038683398101604081905261002f9161007c565b600080546001600160a01b039384166001600160a01b031991821617909155600180549290931691161790556100af565b80516001600160a01b038116811461007757600080fd5b919050565b6000806040838503121561008f57600080fd5b61009883610060565b91506100a660208401610060565b90509250929050565b6102c8806100be6000396000f3fe608060405234801561001057600080fd5b50600436106100415760003560e01c8063354030231461004657806369e527da1461006c578063fc0c546a14610097575b600080fd5b610059610054366004610237565b6100aa565b6040519081526020015b60405180910390f35b60015461007f906001600160a01b031681565b6040516001600160a01b039091168152602001610063565b60005461007f906001600160a01b031681565b600080546040516323b872dd60e01b8152336004820152306024820152604481018490526001600160a01b03909116906323b872dd906064016020604051808303816000875af1158015610102573d6000803e3d6000fd5b505050506040513d601f19601f820116820180604052508101906101269190610250565b5060005460015460405163095ea7b360e01b81526001600160a01b0391821660048201526024810185905291169063095ea7b3906044016020604051808303816000875af115801561017c573d6000803e3d6000fd5b505050506040513d601f19601f820116820180604052508101906101a09190610250565b5060015460405163140e25ad60e31b8152600481018490526000916001600160a01b03169063a0712d68906024016020604051808303816000875af11580156101ed573d6000803e3d6000fd5b505050506040513d601f19601f820116820180604052508101906102119190610279565b905080156102315760405162ec6f7b60e31b815260040160405180910390fd5b92915050565b60006020828403121561024957600080fd5b5035919050565b60006020828403121561026257600080fd5b8151801515811461027257600080fd5b9392505050565b60006020828403121561028b57600080fd5b505191905056fea2646970667358221220c746317afd5c0e5c54f4b04baabf000a9e8fdfb667d7775d7850317a40ee8d2e64736f6c63430008170033","linkReferences":{}},"methodIdentifiers":{"cToken()":"69e527da","supply(uint256)":"35403023","token()":"fc0c546a"},"id":1}