{"abi":[{"type":"constructor","inputs":[{"name":"_token","type":"address","internalType":"address"},{"name":"_cToken","type":"address","internalType":"address"}],"stateMutability":"nonpayable"},{"type":"function","name":"cToken","inputs":[],"outputs":[{"name":"","type":"address","internalType":"contract CErc20"}],"stateMutability":"view"},{"type":"function","name":"estimateBalanceOfUnderlying","inputs":[],"outputs":[{"name":"","type":"uint256","internalType":"uint256"}],"stateMutability":"nonpayable"},{"type":"function","name":"getCTokenBalance","inputs":[],"outputs":[{"name":"","type":"uint256","internalType":"uint256"}],"stateMutability":"view"},{"type":"function","name":"getInfo","inputs":[],"outputs":[{"name":"exchangeRate","type":"uint256","internalType":"uint256"},{"name":"supplyRatePerBlock","type":"uint256","internalType":"uint256"}],"stateMutability":"nonpayable"},{"type":"function","name":"redeem","inputs":[{"name":"_amount","type":"uint256","internalType":"uint256"}],"outputs":[{"name":"","type":"uint256","internalType":"uint256"}],"stateMutability":"nonpayable"},{"type":"function","name":"supply","inputs":[{"name":"_amount","type":"uint256","internalType":"uint256"}],"outputs":[{"name":"","type":"uint256","internalType":"uint256"}],"stateMutability":"nonpayable"},{"type":"function","name":"token","inputs":[],"outputs":[{"name":"","type":"address","internalType":"contract ERC20"}],"stateMutability":"view"},{"type":"error","name":"MintFailed","inputs":[]},{"type":"error","name":"RedeemFailed","inputs":[]}],"bytecode":{"object":"0x608060405234801561001057600080fd5b5060405161093438038061093483398101604081905261002f9161007c565b600080546001600160a01b039384166001600160a01b031991821617909155600180549290931691161790556100af565b80516001600160a01b038116811461007757600080fd5b919050565b6000806040838503121561008f57600080fd5b61009883610060565b91506100a660208401610060565b90509250929050565b610876806100be6000396000f3fe608060405234801561001057600080fd5b506004361061007d5760003560e01c806369e527da1161005b57806369e527da146100cd5780638eae8854146100f8578063db006a7514610100578063fc0c546a1461011357600080fd5b8063354030231461008257806352d900b9146100a85780635a9b0b89146100b0575b600080fd5b610095610090366004610657565b610126565b6040519081526020015b60405180910390f35b6100956102b3565b6100b8610453565b6040805192835260208301919091520161009f565b6001546100e0906001600160a01b031681565b6040516001600160a01b03909116815260200161009f565b610095610550565b61009561010e366004610657565b6105c2565b6000546100e0906001600160a01b031681565b600080546040516323b872dd60e01b8152336004820152306024820152604481018490526001600160a01b03909116906323b872dd906064016020604051808303816000875af115801561017e573d6000803e3d6000fd5b505050506040513d601f19601f820116820180604052508101906101a29190610670565b5060005460015460405163095ea7b360e01b81526001600160a01b0391821660048201526024810185905291169063095ea7b3906044016020604051808303816000875af11580156101f8573d6000803e3d6000fd5b505050506040513d601f19601f8201168201806040525081019061021c9190610670565b5060015460405163140e25ad60e31b8152600481018490526000916001600160a01b03169063a0712d68906024016020604051808303816000875af1158015610269573d6000803e3d6000fd5b505050506040513d601f19601f8201168201806040525081019061028d9190610699565b905080156102ad5760405162ec6f7b60e31b815260040160405180910390fd5b92915050565b6001546040516370a0823160e01b815230600482015260009182916001600160a01b03909116906370a0823190602401602060405180830381865afa158015610300573d6000803e3d6000fd5b505050506040513d601f19601f820116820180604052508101906103249190610699565b90506000600160009054906101000a90046001600160a01b03166001600160a01b031663bd6d894d6040518163ffffffff1660e01b81526004016020604051808303816000875af115801561037d573d6000803e3d6000fd5b505050506040513d601f19601f820116820180604052508101906103a19190610699565b6000546040805163313ce56760e01b8152905192935060089283926001600160a01b03169163313ce5679160048083019260209291908290030181865afa1580156103f0573d6000803e3d6000fd5b505050506040513d601f19601f8201168201806040525081019061041491906106b2565b61041f9060126106eb565b60ff1661042c9190610704565b61043790600a6107fb565b6104418385610807565b61044b919061081e565b935050505090565b600080600160009054906101000a90046001600160a01b03166001600160a01b031663bd6d894d6040518163ffffffff1660e01b81526004016020604051808303816000875af11580156104ab573d6000803e3d6000fd5b505050506040513d601f19601f820116820180604052508101906104cf9190610699565b9150600160009054906101000a90046001600160a01b03166001600160a01b031663ae9d70b06040518163ffffffff1660e01b81526004016020604051808303816000875af1158015610526573d6000803e3d6000fd5b505050506040513d601f19601f8201168201806040525081019061054a9190610699565b90509091565b6001546040516370a0823160e01b81523060048201526000916001600160a01b0316906370a0823190602401602060405180830381865afa158015610599573d6000803e3d6000fd5b505050506040513d601f19601f820116820180604052508101906105bd9190610699565b905090565b60015460405163db006a7560e01b81526004810183905260009182916001600160a01b039091169063db006a75906024016020604051808303816000875af1158015610612573d6000803e3d6000fd5b505050506040513d601f19601f820116820180604052508101906106369190610699565b905080156102ad57604051635d8902e160e11b815260040160405180910390fd5b60006020828403121561066957600080fd5b5035919050565b60006020828403121561068257600080fd5b8151801515811461069257600080fd5b9392505050565b6000602082840312156106ab57600080fd5b5051919050565b6000602082840312156106c457600080fd5b815160ff8116811461069257600080fd5b634e487b7160e01b600052601160045260246000fd5b60ff81811683821601908111156102ad576102ad6106d5565b818103818111156102ad576102ad6106d5565b600181815b80851115610752578160001904821115610738576107386106d5565b8085161561074557918102915b93841c939080029061071c565b509250929050565b600082610769575060016102ad565b81610776575060006102ad565b816001811461078c5760028114610796576107b2565b60019150506102ad565b60ff8411156107a7576107a76106d5565b50506001821b6102ad565b5060208310610133831016604e8410600b84101617156107d5575081810a6102ad565b6107df8383610717565b80600019048211156107f3576107f36106d5565b029392505050565b6000610692838361075a565b80820281158282048414176102ad576102ad6106d5565b60008261083b57634e487b7160e01b600052601260045260246000fd5b50049056fea2646970667358221220c3051cd426116ad215aa18a8cb8c1c6ac93f2d3cec7ed052d5fb46043ba05fe864736f6c63430008170033","linkReferences":{}},"methodIdentifiers":{"cToken()":"69e527da","estimateBalanceOfUnderlying()":"52d900b9","getCTokenBalance()":"8eae8854","getInfo()":"5a9b0b89","redeem(uint256)":"db006a75","supply(uint256)":"35403023","token()":"fc0c546a"},"id":5}