{"abi":[{"type":"constructor","inputs":[{"name":"_token","type":"address","internalType":"address"},{"name":"_cToken","type":"address","internalType":"address"}],"stateMutability":"nonpayable"},{"type":"function","name":"cToken","inputs":[],"outputs":[{"name":"","type":"address","internalType":"contract CErc20"}],"stateMutability":"view"},{"type":"function","name":"getCTokenBalance","inputs":[],"outputs":[{"name":"","type":"uint256","internalType":"uint256"}],"stateMutability":"view"},{"type":"function","name":"getInfo","inputs":[],"outputs":[{"name":"exchangeRate","type":"uint256","internalType":"uint256"},{"name":"supplyRatePerBlock","type":"uint256","internalType":"uint256"}],"stateMutability":"nonpayable"},{"type":"function","name":"supply","inputs":[{"name":"_amount","type":"uint256","internalType":"uint256"}],"outputs":[{"name":"","type":"uint256","internalType":"uint256"}],"stateMutability":"nonpayable"},{"type":"function","name":"token","inputs":[],"outputs":[{"name":"","type":"address","internalType":"contract IERC20"}],"stateMutability":"view"},{"type":"error","name":"MintFailed","inputs":[]}],"bytecode":{"object":"0x608060405234801561001057600080fd5b5060405161053038038061053083398101604081905261002f9161007c565b600080546001600160a01b039384166001600160a01b031991821617909155600180549290931691161790556100af565b80516001600160a01b038116811461007757600080fd5b919050565b6000806040838503121561008f57600080fd5b61009883610060565b91506100a660208401610060565b90509250929050565b610472806100be6000396000f3fe608060405234801561001057600080fd5b50600436106100575760003560e01c8063354030231461005c5780635a9b0b891461008257806369e527da1461009f5780638eae8854146100ca578063fc0c546a146100d2575b600080fd5b61006f61006a3660046103e1565b6100e5565b6040519081526020015b60405180910390f35b61008a610272565b60408051928352602083019190915201610079565b6001546100b2906001600160a01b031681565b6040516001600160a01b039091168152602001610079565b61006f61036f565b6000546100b2906001600160a01b031681565b600080546040516323b872dd60e01b8152336004820152306024820152604481018490526001600160a01b03909116906323b872dd906064016020604051808303816000875af115801561013d573d6000803e3d6000fd5b505050506040513d601f19601f8201168201806040525081019061016191906103fa565b5060005460015460405163095ea7b360e01b81526001600160a01b0391821660048201526024810185905291169063095ea7b3906044016020604051808303816000875af11580156101b7573d6000803e3d6000fd5b505050506040513d601f19601f820116820180604052508101906101db91906103fa565b5060015460405163140e25ad60e31b8152600481018490526000916001600160a01b03169063a0712d68906024016020604051808303816000875af1158015610228573d6000803e3d6000fd5b505050506040513d601f19601f8201168201806040525081019061024c9190610423565b9050801561026c5760405162ec6f7b60e31b815260040160405180910390fd5b92915050565b600080600160009054906101000a90046001600160a01b03166001600160a01b031663bd6d894d6040518163ffffffff1660e01b81526004016020604051808303816000875af11580156102ca573d6000803e3d6000fd5b505050506040513d601f19601f820116820180604052508101906102ee9190610423565b9150600160009054906101000a90046001600160a01b03166001600160a01b031663ae9d70b06040518163ffffffff1660e01b81526004016020604051808303816000875af1158015610345573d6000803e3d6000fd5b505050506040513d601f19601f820116820180604052508101906103699190610423565b90509091565b6001546040516370a0823160e01b81523060048201526000916001600160a01b0316906370a0823190602401602060405180830381865afa1580156103b8573d6000803e3d6000fd5b505050506040513d601f19601f820116820180604052508101906103dc9190610423565b905090565b6000602082840312156103f357600080fd5b5035919050565b60006020828403121561040c57600080fd5b8151801515811461041c57600080fd5b9392505050565b60006020828403121561043557600080fd5b505191905056fea26469706673582212205707056d86b64a580c247dc5e33ebfffcbcf1804d12e1e9925331c1c20f55cc964736f6c63430008170033","linkReferences":{}},"methodIdentifiers":{"cToken()":"69e527da","getCTokenBalance()":"8eae8854","getInfo()":"5a9b0b89","supply(uint256)":"35403023","token()":"fc0c546a"},"id":1}